:100000000C9462000C948A000C948A000C948A0070
:100010000C948A000C948A000C948A000C948A0038
:100020000C948A000C948A000C948A000C948A0028
:100030000C948A000C94FB030C948A000C948A00A4
:100040000C94B1030C948A000C947F030C94590314
:100050000C948A000C948A000C948A000C948A00F8
:100060000C948A000C948A000000000024002700F1
:100070002A0000000000250028002B0000000000DE
:1000800023002600290004040404040404040202DA
:100090000202020203030303030301020408102007
:1000A0004080010204081020010204081020000012
:1000B0000008000201000003040700000000000027
:1000C0000000220411241FBECFEFD8E0DEBFCDBF59
:1000D00011E0A0E0B1E0E4E9FCE002C005900D927F
:1000E000A432B107D9F721E0A4E2B1E001C01D922A
:1000F000AF3DB207E1F710E0C2E6D0E004C02197BF
:10010000FE010E944206C136D107C9F70E94600471
:100110000C9448060C940000AF92BF92CF92DF92ED
:10012000EF92FF920F931F93CF93DF936C017B01AC
:100130008B01040F151FEB015E01AE18BF08C0173D
:10014000D10759F06991D601ED91FC910190F081B0
:10015000E02DC6010995892B79F7C501DF91CF9173
:100160001F910F91FF90EF90DF90CF90BF90AF90D5
:100170000895FC01538D448D252F30E0842F90E0AD
:10018000821B930B541710F0CF9608950197089592
:10019000FC01918D828D981761F0A28DAE0FBF2F5B
:1001A000B11D5D968C91928D9F5F9F73928F90E0B1
:1001B00008958FEF9FEF0895FC01918D828D981720
:1001C00031F0828DE80FF11D858D90E008958FEF5D
:1001D0009FEF0895FC01918D228D892F90E0805C26
:1001E0009F4F821B91098F73992708958CE391E0AB
:1001F0000E94EA0021E0892B09F420E0822F089573
:1002000080E090E0892B29F00E94F60081110C9487
:1002100000000895FC01A48DA80FB92FB11DA35AA9
:10022000BF4F2C91848D90E001968F739927848F16
:10023000A689B7892C93A089B1898C918370806439
:100240008C93938D848D981306C00288F389E02DDA
:1002500080818F7D80830895EF92FF920F931F938B
:10026000CF93DF93EC0181E0888F9B8D8C8D981369
:100270001AC0E889F989808185FF15C09FB7F89475
:10028000EE89FF896083E889F989808183708064C1
:1002900080839FBF81E090E0DF91CF911F910F910C
:1002A000FF90EF900895F62E0B8D10E00F5F1F4F1B
:1002B0000F731127E02E8C8D8E110CC00FB607FC2A
:1002C000FACFE889F989808185FFF5CFCE010E94B8
:1002D0000A01F1CFEB8DEC0FFD2FF11DE35AFF4F1B
:1002E000F0829FB7F8940B8FEA89FB898081806246
:1002F000CFCFCF93DF93EC01888D8823B9F0AA8903
:10030000BB89E889F9898C9185FD03C0808186FDD0
:100310000DC00FB607FCF7CF8C9185FFF2CF80811F
:1003200085FFEDCFCE010E940A01E9CFDF91CF9189
:100330000895833081F028F4813099F08230A9F05B
:1003400008958730A9F08830C9F08430B1F48091E5
:1003500080008F7D03C0809180008F778093800024
:10036000089584B58F7784BD089584B58F7DFBCFC4
:100370008091B0008F778093B00008958091B00095
:100380008F7DF9CF1F93CF93DF93282F30E0F901B2
:10039000E255FF4F8491F901E656FF4FD491F901E0
:1003A000EA57FF4FC491CC23A9F0162F81110E9468
:1003B0009901EC2FF0E0EE0FFF1FEE58FF4FA591D3
:1003C000B4918FB7F894EC91111108C0D095DE2349
:1003D000DC938FBFDF91CF911F910895DE2BF8CF73
:1003E000CF93DF93C9EDD1E060E08C810E94C20120
:1003F00060E08D810E94C20161E08C810E94C20197
:1004000061E08D81DF91CF910C94C201CF93DF9396
:10041000C9EDD1E061E08C810E94C20161E08D8173
:100420000E94C20160E08D810E94C20160E08C8167
:10043000DF91CF910C94C201CF93DF9390E0FC0148
:10044000E656FF4F24918A579F4FFC0184918823E1
:10045000D1F090E0880F991FFC01E859FF4FA5915A
:10046000B491FC01EE58FF4FC591D49161110EC0BB
:100470009FB7F8948C91E22FE0958E238C9328817E
:10048000E223E8839FBFDF91CF9108958FB7F8945F
:10049000EC91E22BEC938FBFF6CF0F931F93CF938A
:1004A000DF93D82FC8E060E08091DD010E94C20197
:1004B0000D2F0D2E000C110B61E0D0FF60E080913C
:1004C000DE010E94C20115950795D02F61E0809151
:1004D000DD010E94C201C15031F760E08091DD0171
:1004E0000E94C20161E08091DE010E94C20161E0D0
:1004F0008091DD010E94C20160E08091DE010E94D6
:100500001C0283EC90E00197F1F72091DE0130E0CE
:10051000F901E255FF4F8491F901E656FF4FD4915E
:10052000F901EA57FF4FC491CC2381F181110E9458
:100530009901EC2FF0E0EE0FFF1FE458FF4FA5915B
:10054000B491EC91ED23C1E0D0E009F4C0E0C11119
:100550000AC061E08091DE010E941C0260E080918F
:10056000DE010E94C20103EC10E0C8010197F1F71F
:1005700061E08091DE010E941C02C8010197F1F741
:10058000CE01DF91CF911F910F910895C0E0D0E08F
:10059000E0CFCF93DF93D82F8091DC01C0E08111B1
:1005A000C0E80E94060284E40E944D020E94F0010D
:1005B0000E9406028D2F806C0E944D028C2F0E949B
:1005C0004D020E94F0010E9406028091DB010E9410
:1005D0004D02DF91CF910C94F001809125018F5F46
:1005E0008093250191E090933B01823009F057C040
:1005F000809124018F5F80932401209135013091F7
:100600003601273031057CF02091330130913401DF
:100610002330310544F010923601109235011092CA
:1006200034011092330120913301309134012F5F56
:100630003F4F30933401209333012830310574F05B
:10064000209135013091360110923401109233011E
:100650002F5F3F4F309336012093350120913501B4
:10066000309136012830310524F010923601109275
:1006700035018C3391F4809131018F5F809331018A
:100680008C3349F4809132018F5F883179F0809307
:1006900032011092310110922401109225018091B3
:1006A00000018095817080930001089510923201BD
:1006B000F0CF1F920F920FB60F9211242F933F93FA
:1006C0004F935F936F937F938F939F93AF93BF935A
:1006D000EF93FF938CE391E00E940A01FF91EF9169
:1006E000BF91AF919F918F917F916F915F914F914A
:1006F0003F912F910F900FBE0F901F9018951F9252
:100700000F920FB60F9211242F938F939F93EF9315
:10071000FF93E0914C01F0914D018081E0915201F5
:10072000F091530182FD1BC09081809155018F5F34
:100730008F7320915601821741F0E0915501F0E04E
:10074000E45CFE4F958F80935501FF91EF919F914F
:100750008F912F910F900FBE0F901F901895808151
:10076000F4CF1F920F920FB60F9211242F933F9345
:100770008F939F93AF93BF9380912B0190912C0106
:10078000A0912D01B0912E0130912A0123E0230F79
:100790002D3758F50196A11DB11D20932A01809394
:1007A0002B0190932C01A0932D01B0932E018091E9
:1007B000260190912701A0912801B091290101966D
:1007C000A11DB11D8093260190932701A0932801BC
:1007D000B0932901BF91AF919F918F913F912F913C
:1007E0000F900FBE0F901F90189526E8230F0296CA
:1007F000A11DB11DD2CF1F920F920FB60F921124DF
:100800002F933F934F935F936F937F938F939F9318
:10081000AF93BF93EF93FF93E0912F01F0913001DD
:100820000995FF91EF91BF91AF919F918F917F912A
:100830006F915F914F913F912F910F900FBE0F904D
:100840001F901895CF93DF93ECE3F1E013821282AF
:1008500088EE93E0A0E0B0E084839583A683B7831D
:1008600085E191E09183808385EC90E09587848792
:1008700084EC90E09787868780EC90E0918B808B6A
:1008800081EC90E0938B828B82EC90E0958B848B53
:1008900086EC90E0978B868B118E128E138E148EC1
:1008A000C9EDD1E089E08C838AE08D8361E089E045
:1008B0000E941C0261E08D81DF91CF910C941C029B
:1008C000CF93DF9300D000D0CDB7DEB7789484B556
:1008D000826084BD84B5816084BD85B5826085BD3C
:1008E00085B5816085BD80916E00816080936E00CA
:1008F00010928100809181008260809381008091BC
:10090000810081608093810080918000816080936C
:1009100080008091B10084608093B1008091B0002C
:1009200081608093B00080917A00846080937A0027
:1009300080917A00826080937A0080917A00816051
:1009400080937A0080917A00806880937A00109278
:10095000C100E0914C01F0914D0182E08083E09173
:100960004801F09149011082E0914A01F0914B0158
:100970008FEC808310925401E0915001F09151016D
:1009800086E08083E0914E01F0914F01808180618B
:100990008083E0914E01F0914F01808188608083D7
:1009A000E0914E01F0914F01808180688083E09159
:1009B0004E01F0914F0180818F7D808313E061E0D3
:1009C000812F0E941C021F5F1930C9F780E48093B9
:1009D000D90180EC8093DA018AE88093DB0180E022
:1009E0000E94C90281E00E94C90282E00E94C902FD
:1009F00083E00E94C90280E1809381001092800010
:100A000084E294EF909387008093860083E1809343
:100A100081008DEE92E09093300180932F0181E070
:100A200080936F0061E08EE00E941C0261E08FE025
:100A30000E941C0260E083E00E94C20160E084E04A
:100A40000E94C20160E085E00E94C20160E086E091
:100A50000E94C20160E087E00E94C20160E088E07D
:100A60000E94C2018AE0D82E7E0125E0E20EF11C30
:100A700000E010E080913B01813009F054C090917A
:100A80000001992309F462C08093DC018091320156
:100A90006D2D0E943606382F292F809337019093B1
:100AA0003801809131010E9436068093390190937C
:100AB0003A0110923B0139832A838B839C83809176
:100AC000DC0190E0811190E8DE0111964D015D019D
:100AD000D501EC91EF3709F03CC01C92FFEFAF1A43
:100AE000BF0AAE14BF04A1F70E94060280E40E9470
:100AF0004D020E94F0010E9406028091DA010E94DC
:100B00004D02D4018D914D010E944D02A814B904EB
:100B1000C1F70E94F0010E9406028091DB010E9451
:100B20004D020E94F001E0913501F09136013197BC
:100B3000E730F105C0F4E156FA4F0C944206D205B5
:100B4000DC05E205E805EA05EC05EE051092DC019E
:100B50009DCF0E2E000CFF0BEF5FFE4F8081890FA3
:100B6000F5018083BBCF60E085E00E94C20160E0B8
:100B700084E00E94C20160E083E00E94C201E09133
:100B80003301F09134013197E730F10548F5E55331
:100B9000FA4F0C9442061806220628062E06300646
:100BA0003206340660E085E00E94C20160E084E025
:100BB0000E94C20161E0E0CF60E085E00E94C201D6
:100BC00061E0D6CF60E085E00E94C20161E0EFCF36
:100BD00061E0CACF61E0E7CF61E0EFCF61E0F3CF42
:100BE00060E088E00E94C20160E087E00E94C201EC
:100BF00060E086E00E94C20161E08EE00E941C027B
:100C000061E08EE00E94C20161E08FE00E941C0260
:100C100061E08FE00E94C2010115110509F42ACF9D
:100C20000E94F600882309F425CF0E94000022CFFD
:100C300060E088E00E94C20160E087E00E94C2019B
:100C400061E0D7CF60E088E00E94C20161E0CDCFD3
:100C500060E088E00E94C20161E0EFCF61E0C1CFB7
:100C600061E0E7CF61E0EFCF61E0F3CF991B79E07E
:100C700004C0991F961708F0961B881F7A95C9F72C
:100C800080950895EE0FFF1F0590F491E02D0994D3
:040C9000F894FFCF06
:100C9400013F065B4F666D7D077F6F777C395E7918
:100CA40071000000002C018C00B9007901EA00C831
:040CB40000DC000060
:00000001FF
